{
  "_format": "hh-sol-artifact-1",
  "contractName": "Tracking",
  "sourceName": "contracts/Tracking.sol",
  "abi": [
    {
      "inputs": [],
      "stateMutability": "nonpayable",
      "type": "constructor"
    },
    {
      "anonymous": false,
      "inputs": [
        {
          "indexed": true,
          "internalType": "address",
          "name": "remetente",
          "type": "address"
        },
        {
          "indexed": true,
          "internalType": "address",
          "name": "destinatario",
          "type": "address"
        },
        {
          "indexed": false,
          "internalType": "uint256",
          "name": "horaColeta",
          "type": "uint256"
        },
        {
          "indexed": false,
          "internalType": "uint256",
          "name": "distancia",
          "type": "uint256"
        },
        {
          "indexed": false,
          "internalType": "uint256",
          "name": "custo",
          "type": "uint256"
        },
        {
          "indexed": false,
          "internalType": "string",
          "name": "nomePeca",
          "type": "string"
        }
      ],
      "name": "EnvioCriado",
      "type": "event"
    },
    {
      "anonymous": false,
      "inputs": [
        {
          "indexed": true,
          "internalType": "address",
          "name": "remetente",
          "type": "address"
        },
        {
          "indexed": true,
          "internalType": "address",
          "name": "destinatario",
          "type": "address"
        },
        {
          "indexed": false,
          "internalType": "uint256",
          "name": "horaColeta",
          "type": "uint256"
        }
      ],
      "name": "EnvioEmTransito",
      "type": "event"
    },
    {
      "anonymous": false,
      "inputs": [
        {
          "indexed": true,
          "internalType": "address",
          "name": "remetente",
          "type": "address"
        },
        {
          "indexed": true,
          "internalType": "address",
          "name": "destinatario",
          "type": "address"
        },
        {
          "indexed": true,
          "internalType": "uint256",
          "name": "horaEntrega",
          "type": "uint256"
        }
      ],
      "name": "EnvioEntregue",
      "type": "event"
    },
    {
      "anonymous": false,
      "inputs": [
        {
          "indexed": true,
          "internalType": "address",
          "name": "remetente",
          "type": "address"
        },
        {
          "indexed": true,
          "internalType": "address",
          "name": "destinatario",
          "type": "address"
        },
        {
          "indexed": false,
          "internalType": "uint256",
          "name": "quantidade",
          "type": "uint256"
        }
      ],
      "name": "EnvioPago",
      "type": "event"
    },
    {
      "inputs": [
        {
          "internalType": "address",
          "name": "_remetente",
          "type": "address"
        },
        {
          "internalType": "uint256",
          "name": "_index",
          "type": "uint256"
        }
      ],
      "name": "consultarEnvio",
      "outputs": [
        {
          "internalType": "address",
          "name": "",
          "type": "address"
        },
        {
          "internalType": "address",
          "name": "",
          "type": "address"
        },
        {
          "internalType": "uint256",
          "name": "",
          "type": "uint256"
        },
        {
          "internalType": "uint256",
          "name": "",
          "type": "uint256"
        },
        {
          "internalType": "uint256",
          "name": "",
          "type": "uint256"
        },
        {
          "internalType": "uint256",
          "name": "",
          "type": "uint256"
        },
        {
          "internalType": "string",
          "name": "",
          "type": "string"
        },
        {
          "internalType": "enum Tracking.Status",
          "name": "",
          "type": "uint8"
        },
        {
          "internalType": "bool",
          "name": "",
          "type": "bool"
        }
      ],
      "stateMutability": "view",
      "type": "function"
    },
    {
      "inputs": [
        {
          "internalType": "address",
          "name": "_remetente",
          "type": "address"
        }
      ],
      "name": "consultarQuantidadeEnvio",
      "outputs": [
        {
          "internalType": "uint256",
          "name": "",
          "type": "uint256"
        }
      ],
      "stateMutability": "view",
      "type": "function"
    },
    {
      "inputs": [],
      "name": "consultarTodosProcessos",
      "outputs": [
        {
          "components": [
            {
              "internalType": "address",
              "name": "remetente",
              "type": "address"
            },
            {
              "internalType": "address",
              "name": "destinatario",
              "type": "address"
            },
            {
              "internalType": "uint256",
              "name": "horaColeta",
              "type": "uint256"
            },
            {
              "internalType": "uint256",
              "name": "horaEntrega",
              "type": "uint256"
            },
            {
              "internalType": "uint256",
              "name": "distancia",
              "type": "uint256"
            },
            {
              "internalType": "uint256",
              "name": "custo",
              "type": "uint256"
            },
            {
              "internalType": "string",
              "name": "nomePeca",
              "type": "string"
            },
            {
              "internalType": "enum Tracking.Status",
              "name": "status",
              "type": "uint8"
            },
            {
              "internalType": "bool",
              "name": "estaPago",
              "type": "bool"
            }
          ],
          "internalType": "struct Tracking.TipoEnvio[]",
          "name": "",
          "type": "tuple[]"
        }
      ],
      "stateMutability": "view",
      "type": "function"
    },
    {
      "inputs": [],
      "name": "contagemEnvio",
      "outputs": [
        {
          "internalType": "uint256",
          "name": "",
          "type": "uint256"
        }
      ],
      "stateMutability": "view",
      "type": "function"
    },
    {
      "inputs": [
        {
          "internalType": "address",
          "name": "_destinatario",
          "type": "address"
        },
        {
          "internalType": "uint256",
          "name": "_horaColeta",
          "type": "uint256"
        },
        {
          "internalType": "uint256",
          "name": "_distancia",
          "type": "uint256"
        },
        {
          "internalType": "uint256",
          "name": "_custo",
          "type": "uint256"
        },
        {
          "internalType": "string",
          "name": "_nomePeca",
          "type": "string"
        }
      ],
      "name": "criarEnvio",
      "outputs": [],
      "stateMutability": "payable",
      "type": "function"
    },
    {
      "inputs": [
        {
          "internalType": "address",
          "name": "",
          "type": "address"
        },
        {
          "internalType": "uint256",
          "name": "",
          "type": "uint256"
        }
      ],
      "name": "envios",
      "outputs": [
        {
          "internalType": "address",
          "name": "remetente",
          "type": "address"
        },
        {
          "internalType": "address",
          "name": "destinatario",
          "type": "address"
        },
        {
          "internalType": "uint256",
          "name": "horaColeta",
          "type": "uint256"
        },
        {
          "internalType": "uint256",
          "name": "horaEntrega",
          "type": "uint256"
        },
        {
          "internalType": "uint256",
          "name": "distancia",
          "type": "uint256"
        },
        {
          "internalType": "uint256",
          "name": "custo",
          "type": "uint256"
        },
        {
          "internalType": "string",
          "name": "nomePeca",
          "type": "string"
        },
        {
          "internalType": "enum Tracking.Status",
          "name": "status",
          "type": "uint8"
        },
        {
          "internalType": "bool",
          "name": "estaPago",
          "type": "bool"
        }
      ],
      "stateMutability": "view",
      "type": "function"
    },
    {
      "inputs": [
        {
          "internalType": "address",
          "name": "_remetente",
          "type": "address"
        },
        {
          "internalType": "address",
          "name": "_destinatario",
          "type": "address"
        },
        {
          "internalType": "uint256",
          "name": "_index",
          "type": "uint256"
        }
      ],
      "name": "finalizarEnvio",
      "outputs": [],
      "stateMutability": "nonpayable",
      "type": "function"
    },
    {
      "inputs": [
        {
          "internalType": "address",
          "name": "_remetente",
          "type": "address"
        },
        {
          "internalType": "address",
          "name": "_destinatario",
          "type": "address"
        },
        {
          "internalType": "uint256",
          "name": "_index",
          "type": "uint256"
        }
      ],
      "name": "iniciarEnvio",
      "outputs": [],
      "stateMutability": "nonpayable",
      "type": "function"
    }
  ],
  "bytecode": "0x608060405234801561001057600080fd5b5060006001819055506121af806100286000396000f3fe60806040526004361061007a5760003560e01c8063df3484651161004e578063df34846514610132578063e603e7571461015d578063e727c9401461019a578063f9542496146101df5761007a565b8062664bbd1461007f5780633b6fb69e146100c45780636f059cae146100e057806373014c5914610109575b600080fd5b34801561008b57600080fd5b506100a660048036038101906100a191906117f1565b61020a565b6040516100bb99989796959493929190611ba3565b60405180910390f35b6100de60048036038101906100d9919061182d565b610502565b005b3480156100ec57600080fd5b50610107600480360381019061010291906117a2565b610a50565b005b34801561011557600080fd5b50610130600480360381019061012b91906117a2565b610d90565b005b34801561013e57600080fd5b5061014761123e565b6040516101549190611c37565b60405180910390f35b34801561016957600080fd5b50610184600480360381019061017f9190611779565b6114a6565b6040516101919190611cf9565b60405180910390f35b3480156101a657600080fd5b506101c160048036038101906101bc91906117f1565b6114f1565b6040516101d699989796959493929190611ba3565b60405180910390f35b3480156101eb57600080fd5b506101f461163e565b6040516102019190611cf9565b60405180910390f35b600080600080600080606060008060008060008d73ffffffffffffffffffffffffffffffffffffffff1673ffffffffffffffffffffffffffffffffffffffff1681526020019081526020016000208b81548110610290577f4e487b7100000000000000000000000000000000000000000000000000000000600052603260045260246000fd5b9060005260206000209060080201604051806101200160405290816000820160009054906101000a900473ffffffffffffffffffffffffffffffffffffffff1673ffffffffffffffffffffffffffffffffffffffff1673ffffffffffffffffffffffffffffffffffffffff1681526020016001820160009054906101000a900473ffffffffffffffffffffffffffffffffffffffff1673ffffffffffffffffffffffffffffffffffffffff1673ffffffffffffffffffffffffffffffffffffffff1681526020016002820154815260200160038201548152602001600482015481526020016005820154815260200160068201805461038e90611ecb565b80601f01602080910402602001604051908101604052809291908181526020018280546103ba90611ecb565b80156104075780601f106103dc57610100808354040283529160200191610407565b820191906000526020600020905b8154815290600101906020018083116103ea57829003601f168201915b505050505081526020016007820160009054906101000a900460ff16600281111561045b577f4e487b7100000000000000000000000000000000000000000000000000000000600052602160045260246000fd5b6002811115610493577f4e487b7100000000000000000000000000000000000000000000000000000000600052602160045260246000fd5b81526020016007820160019054906101000a900460ff1615151515815250509050806000015181602001518260400151836060015184608001518560a001518660c001518760e00151886101000151995099509950995099509950995099509950509295985092959850929598565b813414610544576040517f08c379a000000000000000000000000000000000000000000000000000000000815260040161053b90611c59565b60405180910390fd5b60006040518061012001604052803373ffffffffffffffffffffffffffffffffffffffff1681526020018773ffffffffffffffffffffffffffffffffffffffff16815260200186815260200160008152602001858152602001848152602001838152602001600060028111156105e3577f4e487b7100000000000000000000000000000000000000000000000000000000600052602160045260246000fd5b81526020016000151581525090506000803373ffffffffffffffffffffffffffffffffffffffff1673ffffffffffffffffffffffffffffffffffffffff16815260200190815260200160002081908060018154018082558091505060019003906000526020600020906008020160009091909190915060008201518160000160006101000a81548173ffffffffffffffffffffffffffffffffffffffff021916908373ffffffffffffffffffffffffffffffffffffffff16021790555060208201518160010160006101000a81548173ffffffffffffffffffffffffffffffffffffffff021916908373ffffffffffffffffffffffffffffffffffffffff16021790555060408201518160020155606082015181600301556080820151816004015560a0820151816005015560c082015181600601908051906020019061072b929190611644565b5060e08201518160070160006101000a81548160ff0219169083600281111561077d577f4e487b7100000000000000000000000000000000000000000000000000000000600052602160045260246000fd5b02179055506101008201518160070160016101000a81548160ff0219169083151502179055505050600160008154809291906107b890611f2e565b919050555060026040518061012001604052803373ffffffffffffffffffffffffffffffffffffffff1681526020018873ffffffffffffffffffffffffffffffffffffffff168152602001878152602001600081526020018681526020018581526020018481526020016000600281111561085c577f4e487b7100000000000000000000000000000000000000000000000000000000600052602160045260246000fd5b815260200160001515815250908060018154018082558091505060019003906000526020600020906008020160009091909190915060008201518160000160006101000a81548173ffffffffffffffffffffffffffffffffffffffff021916908373ffffffffffffffffffffffffffffffffffffffff16021790555060208201518160010160006101000a81548173ffffffffffffffffffffffffffffffffffffffff021916908373ffffffffffffffffffffffffffffffffffffffff16021790555060408201518160020155606082015181600301556080820151816004015560a0820151816005015560c0820151816006019080519060200190610963929190611644565b5060e08201518160070160006101000a81548160ff021916908360028111156109b5577f4e487b7100000000000000000000000000000000000000000000000000000000600052602160045260246000fd5b02179055506101008201518160070160016101000a81548160ff02191690831515021790555050508573ffffffffffffffffffffffffffffffffffffffff163373ffffffffffffffffffffffffffffffffffffffff167fbb74e2e260d23d23a4b85ccd61bd9be63aa4258f52a81e40f25b84b9714ef35d87878787604051610a409493929190611d14565b60405180910390a3505050505050565b60008060008573ffffffffffffffffffffffffffffffffffffffff1673ffffffffffffffffffffffffffffffffffffffff1681526020019081526020016000208281548110610ac8577f4e487b7100000000000000000000000000000000000000000000000000000000600052603260045260246000fd5b90600052602060002090600802019050600060028381548110610b14577f4e487b7100000000000000000000000000000000000000000000000000000000600052603260045260246000fd5b906000526020600020906008020190508373ffffffffffffffffffffffffffffffffffffffff168260010160009054906101000a900473ffffffffffffffffffffffffffffffffffffffff1673ffffffffffffffffffffffffffffffffffffffff1614610bb6576040517f08c379a0000000000000000000000000000000000000000000000000000000008152600401610bad90611cd9565b60405180910390fd5b60006002811115610bf0577f4e487b7100000000000000000000000000000000000000000000000000000000600052602160045260246000fd5b8260070160009054906101000a900460ff166002811115610c3a577f4e487b7100000000000000000000000000000000000000000000000000000000600052602160045260246000fd5b14610c7a576040517f08c379a0000000000000000000000000000000000000000000000000000000008152600401610c7190611cb9565b60405180910390fd5b60018260070160006101000a81548160ff02191690836002811115610cc8577f4e487b7100000000000000000000000000000000000000000000000000000000600052602160045260246000fd5b021790555060018160070160006101000a81548160ff02191690836002811115610d1b577f4e487b7100000000000000000000000000000000000000000000000000000000600052602160045260246000fd5b02179055508373ffffffffffffffffffffffffffffffffffffffff168573ffffffffffffffffffffffffffffffffffffffff167fe2d504fae6b351ba9eb0e1c9419113bef2ff7e676303c4953663b9b93c3505298460020154604051610d819190611cf9565b60405180910390a35050505050565b60008060008573ffffffffffffffffffffffffffffffffffffffff1673ffffffffffffffffffffffffffffffffffffffff1681526020019081526020016000208281548110610e08577f4e487b7100000000000000000000000000000000000000000000000000000000600052603260045260246000fd5b90600052602060002090600802019050600060028381548110610e54577f4e487b7100000000000000000000000000000000000000000000000000000000600052603260045260246000fd5b906000526020600020906008020190508373ffffffffffffffffffffffffffffffffffffffff168260010160009054906101000a900473ffffffffffffffffffffffffffffffffffffffff1673ffffffffffffffffffffffffffffffffffffffff1614610ef6576040517f08c379a0000000000000000000000000000000000000000000000000000000008152600401610eed90611cd9565b60405180910390fd5b60016002811115610f30577f4e487b7100000000000000000000000000000000000000000000000000000000600052602160045260246000fd5b8260070160009054906101000a900460ff166002811115610f7a577f4e487b7100000000000000000000000000000000000000000000000000000000600052602160045260246000fd5b14610fba576040517f08c379a0000000000000000000000000000000000000000000000000000000008152600401610fb190611c99565b60405180910390fd5b8160070160019054906101000a900460ff161561100c576040517f08c379a000000000000000000000000000000000000000000000000000000000815260040161100390611c79565b60405180910390fd5b60028260070160006101000a81548160ff0219169083600281111561105a577f4e487b7100000000000000000000000000000000000000000000000000000000600052602160045260246000fd5b021790555060028160070160006101000a81548160ff021916908360028111156110ad577f4e487b7100000000000000000000000000000000000000000000000000000000600052602160045260246000fd5b02179055504281600301819055504282600301819055506000826005015490508260000160009054906101000a900473ffffffffffffffffffffffffffffffffffffffff1673ffffffffffffffffffffffffffffffffffffffff166108fc829081150290604051600060405180830381858888f19350505050158015611137573d6000803e3d6000fd5b5060018360070160016101000a81548160ff02191690831515021790555060018260070160016101000a81548160ff02191690831515021790555082600301548573ffffffffffffffffffffffffffffffffffffffff168773ffffffffffffffffffffffffffffffffffffffff167faa735f7510d5f32d6c643ccef579aa851ae81e5881392d26819834149ac55fce60405160405180910390a48473ffffffffffffffffffffffffffffffffffffffff168673ffffffffffffffffffffffffffffffffffffffff167fbdf526bb0531ddad5dfa48ba53c4aee4fdd0866efb71a6a9eba6656ed21ed9478360405161122e9190611cf9565b60405180910390a3505050505050565b60606002805480602002602001604051908101604052809291908181526020016000905b8282101561149d5783829060005260206000209060080201604051806101200160405290816000820160009054906101000a900473ffffffffffffffffffffffffffffffffffffffff1673ffffffffffffffffffffffffffffffffffffffff1673ffffffffffffffffffffffffffffffffffffffff1681526020016001820160009054906101000a900473ffffffffffffffffffffffffffffffffffffffff1673ffffffffffffffffffffffffffffffffffffffff1673ffffffffffffffffffffffffffffffffffffffff1681526020016002820154815260200160038201548152602001600482015481526020016005820154815260200160068201805461136a90611ecb565b80601f016020809104026020016040519081016040528092919081815260200182805461139690611ecb565b80156113e35780601f106113b8576101008083540402835291602001916113e3565b820191906000526020600020905b8154815290600101906020018083116113c657829003601f168201915b505050505081526020016007820160009054906101000a900460ff166002811115611437577f4e487b7100000000000000000000000000000000000000000000000000000000600052602160045260246000fd5b600281111561146f577f4e487b7100000000000000000000000000000000000000000000000000000000600052602160045260246000fd5b81526020016007820160019054906101000a900460ff16151515158152505081526020019060010190611262565b50505050905090565b60008060008373ffffffffffffffffffffffffffffffffffffffff1673ffffffffffffffffffffffffffffffffffffffff168152602001908152602001600020805490509050919050565b6000602052816000526040600020818154811061150d57600080fd5b9060005260206000209060080201600091509150508060000160009054906101000a900473ffffffffffffffffffffffffffffffffffffffff16908060010160009054906101000a900473ffffffffffffffffffffffffffffffffffffffff169080600201549080600301549080600401549080600501549080600601805461159590611ecb565b80601f01602080910402602001604051908101604052809291908181526020018280546115c190611ecb565b801561160e5780601f106115e35761010080835404028352916020019161160e565b820191906000526020600020905b8154815290600101906020018083116115f157829003601f168201915b5050505050908060070160009054906101000a900460ff16908060070160019054906101000a900460ff16905089565b60015481565b82805461165090611ecb565b90600052602060002090601f01602090048101928261167257600085556116b9565b82601f1061168b57805160ff19168380011785556116b9565b828001600101855582156116b9579182015b828111156116b857825182559160200191906001019061169d565b5b5090506116c691906116ca565b5090565b5b808211156116e35760008160009055506001016116cb565b5090565b60006116fa6116f584611d85565b611d60565b90508281526020810184848401111561171257600080fd5b61171d848285611e89565b509392505050565b6000813590506117348161214b565b92915050565b600082601f83011261174b57600080fd5b813561175b8482602086016116e7565b91505092915050565b60008135905061177381612162565b92915050565b60006020828403121561178b57600080fd5b600061179984828501611725565b91505092915050565b6000806000606084860312156117b757600080fd5b60006117c586828701611725565b93505060206117d686828701611725565b92505060406117e786828701611764565b9150509250925092565b6000806040838503121561180457600080fd5b600061181285828601611725565b925050602061182385828601611764565b9150509250929050565b600080600080600060a0868803121561184557600080fd5b600061185388828901611725565b955050602061186488828901611764565b945050604061187588828901611764565b935050606061188688828901611764565b925050608086013567ffffffffffffffff8111156118a357600080fd5b6118af8882890161173a565b9150509295509295909350565b60006118c88383611ac0565b905092915050565b6118d981611e1c565b82525050565b6118e881611e1c565b82525050565b60006118f982611dc6565b6119038185611de9565b93508360208202850161191585611db6565b8060005b85811015611951578484038952815161193285826118bc565b945061193d83611ddc565b925060208a01995050600181019050611919565b50829750879550505050505092915050565b61196c81611e2e565b82525050565b61197b81611e2e565b82525050565b61198a81611e77565b82525050565b61199981611e77565b82525050565b60006119aa82611dd1565b6119b48185611dfa565b93506119c4818560208601611e98565b6119cd81612033565b840191505092915050565b60006119e382611dd1565b6119ed8185611e0b565b93506119fd818560208601611e98565b611a0681612033565b840191505092915050565b6000611a1e602f83611e0b565b9150611a2982612044565b604082019050919050565b6000611a41600e83611e0b565b9150611a4c82612093565b602082019050919050565b6000611a64601d83611e0b565b9150611a6f826120bc565b602082019050919050565b6000611a87601683611e0b565b9150611a92826120e5565b602082019050919050565b6000611aaa601883611e0b565b9150611ab58261210e565b602082019050919050565b600061012083016000830151611ad960008601826118d0565b506020830151611aec60208601826118d0565b506040830151611aff6040860182611b85565b506060830151611b126060860182611b85565b506080830151611b256080860182611b85565b5060a0830151611b3860a0860182611b85565b5060c083015184820360c0860152611b50828261199f565b91505060e0830151611b6560e0860182611981565b50610100830151611b7a610100860182611963565b508091505092915050565b611b8e81611e6d565b82525050565b611b9d81611e6d565b82525050565b600061012082019050611bb9600083018c6118df565b611bc6602083018b6118df565b611bd3604083018a611b94565b611be06060830189611b94565b611bed6080830188611b94565b611bfa60a0830187611b94565b81810360c0830152611c0c81866119d8565b9050611c1b60e0830185611990565b611c29610100830184611972565b9a9950505050505050505050565b60006020820190508181036000830152611c5181846118ee565b905092915050565b60006020820190508181036000830152611c7281611a11565b9050919050565b60006020820190508181036000830152611c9281611a34565b9050919050565b60006020820190508181036000830152611cb281611a57565b9050919050565b60006020820190508181036000830152611cd281611a7a565b9050919050565b60006020820190508181036000830152611cf281611a9d565b9050919050565b6000602082019050611d0e6000830184611b94565b92915050565b6000608082019050611d296000830187611b94565b611d366020830186611b94565b611d436040830185611b94565b8181036060830152611d5581846119d8565b905095945050505050565b6000611d6a611d7b565b9050611d768282611efd565b919050565b6000604051905090565b600067ffffffffffffffff821115611da057611d9f612004565b5b611da982612033565b9050602081019050919050565b6000819050602082019050919050565b600081519050919050565b600081519050919050565b6000602082019050919050565b600082825260208201905092915050565b600082825260208201905092915050565b600082825260208201905092915050565b6000611e2782611e4d565b9050919050565b60008115159050919050565b6000819050611e4882612137565b919050565b600073ffffffffffffffffffffffffffffffffffffffff82169050919050565b6000819050919050565b6000611e8282611e3a565b9050919050565b82818337600083830152505050565b60005b83811015611eb6578082015181840152602081019050611e9b565b83811115611ec5576000848401525b50505050565b60006002820490506001821680611ee357607f821691505b60208210811415611ef757611ef6611fd5565b5b50919050565b611f0682612033565b810181811067ffffffffffffffff82111715611f2557611f24612004565b5b80604052505050565b6000611f3982611e6d565b91507fffffffffffffffffffffffffffffffffffffffffffffffffffffffffffffffff821415611f6c57611f6b611f77565b5b600182019050919050565b7f4e487b7100000000000000000000000000000000000000000000000000000000600052601160045260246000fd5b7f4e487b7100000000000000000000000000000000000000000000000000000000600052602160045260246000fd5b7f4e487b7100000000000000000000000000000000000000000000000000000000600052602260045260246000fd5b7f4e487b7100000000000000000000000000000000000000000000000000000000600052604160045260246000fd5b6000601f19601f8301169050919050565b7f4f2076616c6f7220646f20706167616d656e746f206465766520636f7272657360008201527f706f6e64657220616f20637573746f0000000000000000000000000000000000602082015250565b7f4ac3a12065737461207061676f21000000000000000000000000000000000000600082015250565b7f41696e6461206ec3a36f20657374c3a120656d207472616e7369746f2e000000600082015250565b7f4ac3a120657374c3a120656d207472c3a26e7369746f00000000000000000000600082015250565b7f44657374696e6174c3a172696f20696e76c3a16c69646f2e0000000000000000600082015250565b6003811061214857612147611fa6565b5b50565b61215481611e1c565b811461215f57600080fd5b50565b61216b81611e6d565b811461217657600080fd5b5056fea26469706673582212203ec0bdfd503791d56d3ee55b19a4f36e665a16ea77c1ec00e6649dbf4444ddeb64736f6c63430008040033",
  "linkReferences": {},
  "deployedLinkReferences": {}
}