{
  "_format": "hh-sol-artifact-1",
  "contractName": "Tracking",
  "sourceName": "contracts/Tracking.sol",
  "abi": [
    {
      "inputs": [],
      "stateMutability": "nonpayable",
      "type": "constructor"
    },
    {
      "anonymous": false,
      "inputs": [
        {
          "indexed": true,
          "internalType": "address",
          "name": "remetente",
          "type": "address"
        },
        {
          "indexed": true,
          "internalType": "address",
          "name": "destinatario",
          "type": "address"
        },
        {
          "indexed": false,
          "internalType": "uint256",
          "name": "horaColeta",
          "type": "uint256"
        },
        {
          "indexed": false,
          "internalType": "uint256",
          "name": "distancia",
          "type": "uint256"
        },
        {
          "indexed": false,
          "internalType": "uint256",
          "name": "custo",
          "type": "uint256"
        }
      ],
      "name": "EnvioCriado",
      "type": "event"
    },
    {
      "anonymous": false,
      "inputs": [
        {
          "indexed": true,
          "internalType": "address",
          "name": "remetente",
          "type": "address"
        },
        {
          "indexed": true,
          "internalType": "address",
          "name": "destinatario",
          "type": "address"
        },
        {
          "indexed": false,
          "internalType": "uint256",
          "name": "horaColeta",
          "type": "uint256"
        }
      ],
      "name": "EnvioEmTransito",
      "type": "event"
    },
    {
      "anonymous": false,
      "inputs": [
        {
          "indexed": true,
          "internalType": "address",
          "name": "remetente",
          "type": "address"
        },
        {
          "indexed": true,
          "internalType": "address",
          "name": "destinatario",
          "type": "address"
        },
        {
          "indexed": true,
          "internalType": "uint256",
          "name": "horaEntrega",
          "type": "uint256"
        }
      ],
      "name": "EnvioEntregue",
      "type": "event"
    },
    {
      "anonymous": false,
      "inputs": [
        {
          "indexed": true,
          "internalType": "address",
          "name": "remetente",
          "type": "address"
        },
        {
          "indexed": true,
          "internalType": "address",
          "name": "destinatario",
          "type": "address"
        },
        {
          "indexed": false,
          "internalType": "uint256",
          "name": "quantidade",
          "type": "uint256"
        }
      ],
      "name": "EnvioPago",
      "type": "event"
    },
    {
      "inputs": [
        {
          "internalType": "address",
          "name": "_remetente",
          "type": "address"
        },
        {
          "internalType": "uint256",
          "name": "_index",
          "type": "uint256"
        }
      ],
      "name": "consultarEnvio",
      "outputs": [
        {
          "internalType": "address",
          "name": "",
          "type": "address"
        },
        {
          "internalType": "address",
          "name": "",
          "type": "address"
        },
        {
          "internalType": "uint256",
          "name": "",
          "type": "uint256"
        },
        {
          "internalType": "uint256",
          "name": "",
          "type": "uint256"
        },
        {
          "internalType": "uint256",
          "name": "",
          "type": "uint256"
        },
        {
          "internalType": "uint256",
          "name": "",
          "type": "uint256"
        },
        {
          "internalType": "enum Tracking.Status",
          "name": "",
          "type": "uint8"
        },
        {
          "internalType": "bool",
          "name": "",
          "type": "bool"
        }
      ],
      "stateMutability": "view",
      "type": "function"
    },
    {
      "inputs": [
        {
          "internalType": "address",
          "name": "_remetente",
          "type": "address"
        }
      ],
      "name": "consultarQuantidadeEnvio",
      "outputs": [
        {
          "internalType": "uint256",
          "name": "",
          "type": "uint256"
        }
      ],
      "stateMutability": "view",
      "type": "function"
    },
    {
      "inputs": [],
      "name": "consultarTodosProcessos",
      "outputs": [
        {
          "components": [
            {
              "internalType": "address",
              "name": "remetente",
              "type": "address"
            },
            {
              "internalType": "address",
              "name": "destinatario",
              "type": "address"
            },
            {
              "internalType": "uint256",
              "name": "horaColeta",
              "type": "uint256"
            },
            {
              "internalType": "uint256",
              "name": "horaEntrega",
              "type": "uint256"
            },
            {
              "internalType": "uint256",
              "name": "distancia",
              "type": "uint256"
            },
            {
              "internalType": "uint256",
              "name": "custo",
              "type": "uint256"
            },
            {
              "internalType": "enum Tracking.Status",
              "name": "status",
              "type": "uint8"
            },
            {
              "internalType": "bool",
              "name": "estaPago",
              "type": "bool"
            }
          ],
          "internalType": "struct Tracking.TipoEnvio[]",
          "name": "",
          "type": "tuple[]"
        }
      ],
      "stateMutability": "view",
      "type": "function"
    },
    {
      "inputs": [],
      "name": "contagemEnvio",
      "outputs": [
        {
          "internalType": "uint256",
          "name": "",
          "type": "uint256"
        }
      ],
      "stateMutability": "view",
      "type": "function"
    },
    {
      "inputs": [
        {
          "internalType": "address",
          "name": "_destinatario",
          "type": "address"
        },
        {
          "internalType": "uint256",
          "name": "_horaColeta",
          "type": "uint256"
        },
        {
          "internalType": "uint256",
          "name": "_distancia",
          "type": "uint256"
        },
        {
          "internalType": "uint256",
          "name": "_custo",
          "type": "uint256"
        }
      ],
      "name": "criarEnvio",
      "outputs": [],
      "stateMutability": "payable",
      "type": "function"
    },
    {
      "inputs": [
        {
          "internalType": "address",
          "name": "",
          "type": "address"
        },
        {
          "internalType": "uint256",
          "name": "",
          "type": "uint256"
        }
      ],
      "name": "envios",
      "outputs": [
        {
          "internalType": "address",
          "name": "remetente",
          "type": "address"
        },
        {
          "internalType": "address",
          "name": "destinatario",
          "type": "address"
        },
        {
          "internalType": "uint256",
          "name": "horaColeta",
          "type": "uint256"
        },
        {
          "internalType": "uint256",
          "name": "horaEntrega",
          "type": "uint256"
        },
        {
          "internalType": "uint256",
          "name": "distancia",
          "type": "uint256"
        },
        {
          "internalType": "uint256",
          "name": "custo",
          "type": "uint256"
        },
        {
          "internalType": "enum Tracking.Status",
          "name": "status",
          "type": "uint8"
        },
        {
          "internalType": "bool",
          "name": "estaPago",
          "type": "bool"
        }
      ],
      "stateMutability": "view",
      "type": "function"
    },
    {
      "inputs": [
        {
          "internalType": "address",
          "name": "_remetente",
          "type": "address"
        },
        {
          "internalType": "address",
          "name": "_destinatario",
          "type": "address"
        },
        {
          "internalType": "uint256",
          "name": "_index",
          "type": "uint256"
        }
      ],
      "name": "finalizarEnvio",
      "outputs": [],
      "stateMutability": "nonpayable",
      "type": "function"
    },
    {
      "inputs": [
        {
          "internalType": "address",
          "name": "_remetente",
          "type": "address"
        },
        {
          "internalType": "address",
          "name": "_destinatario",
          "type": "address"
        },
        {
          "internalType": "uint256",
          "name": "_index",
          "type": "uint256"
        }
      ],
      "name": "iniciarEnvio",
      "outputs": [],
      "stateMutability": "nonpayable",
      "type": "function"
    }
  ],
  "bytecode": "0x608060405234801561001057600080fd5b506000600181905550611c17806100286000396000f3fe60806040526004361061007a5760003560e01c8063df3484651161004e578063df34846514610131578063e603e7571461015c578063e727c94014610199578063f9542496146101dd5761007a565b8062664bbd1461007f5780636f059cae146100c357806373014c59146100ec578063ca6a5b1614610115575b600080fd5b34801561008b57600080fd5b506100a660048036038101906100a191906114dd565b610208565b6040516100ba9897969594939291906117bc565b60405180910390f35b3480156100cf57600080fd5b506100ea60048036038101906100e5919061148e565b610464565b005b3480156100f857600080fd5b50610113600480360381019061010e919061148e565b6107a4565b005b61012f600480360381019061012a9190611519565b610c52565b005b34801561013d57600080fd5b50610146611155565b604051610153919061183a565b60405180910390f35b34801561016857600080fd5b50610183600480360381019061017e9190611465565b61132b565b60405161019091906118fc565b60405180910390f35b3480156101a557600080fd5b506101c060048036038101906101bb91906114dd565b611376565b6040516101d49897969594939291906117bc565b60405180910390f35b3480156101e957600080fd5b506101f2611435565b6040516101ff91906118fc565b60405180910390f35b60008060008060008060008060008060008c73ffffffffffffffffffffffffffffffffffffffff1673ffffffffffffffffffffffffffffffffffffffff1681526020019081526020016000208a8154811061028c577f4e487b7100000000000000000000000000000000000000000000000000000000600052603260045260246000fd5b9060005260206000209060070201604051806101000160405290816000820160009054906101000a900473ffffffffffffffffffffffffffffffffffffffff1673ffffffffffffffffffffffffffffffffffffffff1673ffffffffffffffffffffffffffffffffffffffff1681526020016001820160009054906101000a900473ffffffffffffffffffffffffffffffffffffffff1673ffffffffffffffffffffffffffffffffffffffff1673ffffffffffffffffffffffffffffffffffffffff168152602001600282015481526020016003820154815260200160048201548152602001600582015481526020016006820160009054906101000a900460ff1660028111156103c5577f4e487b7100000000000000000000000000000000000000000000000000000000600052602160045260246000fd5b60028111156103fd577f4e487b7100000000000000000000000000000000000000000000000000000000600052602160045260246000fd5b81526020016006820160019054906101000a900460ff1615151515815250509050806000015181602001518260400151836060015184608001518560a001518660c001518760e0015198509850985098509850985098509850509295985092959890939650565b60008060008573ffffffffffffffffffffffffffffffffffffffff1673ffffffffffffffffffffffffffffffffffffffff16815260200190815260200160002082815481106104dc577f4e487b7100000000000000000000000000000000000000000000000000000000600052603260045260246000fd5b90600052602060002090600702019050600060028381548110610528577f4e487b7100000000000000000000000000000000000000000000000000000000600052603260045260246000fd5b906000526020600020906007020190508373ffffffffffffffffffffffffffffffffffffffff168260010160009054906101000a900473ffffffffffffffffffffffffffffffffffffffff1673ffffffffffffffffffffffffffffffffffffffff16146105ca576040517f08c379a00000000000000000000000000000000000000000000000000000000081526004016105c1906118dc565b60405180910390fd5b60006002811115610604577f4e487b7100000000000000000000000000000000000000000000000000000000600052602160045260246000fd5b8260060160009054906101000a900460ff16600281111561064e577f4e487b7100000000000000000000000000000000000000000000000000000000600052602160045260246000fd5b1461068e576040517f08c379a0000000000000000000000000000000000000000000000000000000008152600401610685906118bc565b60405180910390fd5b60018260060160006101000a81548160ff021916908360028111156106dc577f4e487b7100000000000000000000000000000000000000000000000000000000600052602160045260246000fd5b021790555060018160060160006101000a81548160ff0219169083600281111561072f577f4e487b7100000000000000000000000000000000000000000000000000000000600052602160045260246000fd5b02179055508373ffffffffffffffffffffffffffffffffffffffff168573ffffffffffffffffffffffffffffffffffffffff167fe2d504fae6b351ba9eb0e1c9419113bef2ff7e676303c4953663b9b93c350529846002015460405161079591906118fc565b60405180910390a35050505050565b60008060008573ffffffffffffffffffffffffffffffffffffffff1673ffffffffffffffffffffffffffffffffffffffff168152602001908152602001600020828154811061081c577f4e487b7100000000000000000000000000000000000000000000000000000000600052603260045260246000fd5b90600052602060002090600702019050600060028381548110610868577f4e487b7100000000000000000000000000000000000000000000000000000000600052603260045260246000fd5b906000526020600020906007020190508373ffffffffffffffffffffffffffffffffffffffff168260010160009054906101000a900473ffffffffffffffffffffffffffffffffffffffff1673ffffffffffffffffffffffffffffffffffffffff161461090a576040517f08c379a0000000000000000000000000000000000000000000000000000000008152600401610901906118dc565b60405180910390fd5b60016002811115610944577f4e487b7100000000000000000000000000000000000000000000000000000000600052602160045260246000fd5b8260060160009054906101000a900460ff16600281111561098e577f4e487b7100000000000000000000000000000000000000000000000000000000600052602160045260246000fd5b146109ce576040517f08c379a00000000000000000000000000000000000000000000000000000000081526004016109c59061189c565b60405180910390fd5b8160060160019054906101000a900460ff1615610a20576040517f08c379a0000000000000000000000000000000000000000000000000000000008152600401610a179061187c565b60405180910390fd5b60028260060160006101000a81548160ff02191690836002811115610a6e577f4e487b7100000000000000000000000000000000000000000000000000000000600052602160045260246000fd5b021790555060028160060160006101000a81548160ff02191690836002811115610ac1577f4e487b7100000000000000000000000000000000000000000000000000000000600052602160045260246000fd5b02179055504281600301819055504282600301819055506000826005015490508260000160009054906101000a900473ffffffffffffffffffffffffffffffffffffffff1673ffffffffffffffffffffffffffffffffffffffff166108fc829081150290604051600060405180830381858888f19350505050158015610b4b573d6000803e3d6000fd5b5060018360060160016101000a81548160ff02191690831515021790555060018260060160016101000a81548160ff02191690831515021790555082600301548573ffffffffffffffffffffffffffffffffffffffff168773ffffffffffffffffffffffffffffffffffffffff167faa735f7510d5f32d6c643ccef579aa851ae81e5881392d26819834149ac55fce60405160405180910390a48473ffffffffffffffffffffffffffffffffffffffff168673ffffffffffffffffffffffffffffffffffffffff167fbdf526bb0531ddad5dfa48ba53c4aee4fdd0866efb71a6a9eba6656ed21ed94783604051610c4291906118fc565b60405180910390a3505050505050565b803414610c94576040517f08c379a0000000000000000000000000000000000000000000000000000000008152600401610c8b9061185c565b60405180910390fd5b60006040518061010001604052803373ffffffffffffffffffffffffffffffffffffffff1681526020018673ffffffffffffffffffffffffffffffffffffffff1681526020018581526020016000815260200184815260200183815260200160006002811115610d2d577f4e487b7100000000000000000000000000000000000000000000000000000000600052602160045260246000fd5b81526020016000151581525090506000803373ffffffffffffffffffffffffffffffffffffffff1673ffffffffffffffffffffffffffffffffffffffff16815260200190815260200160002081908060018154018082558091505060019003906000526020600020906007020160009091909190915060008201518160000160006101000a81548173ffffffffffffffffffffffffffffffffffffffff021916908373ffffffffffffffffffffffffffffffffffffffff16021790555060208201518160010160006101000a81548173ffffffffffffffffffffffffffffffffffffffff021916908373ffffffffffffffffffffffffffffffffffffffff16021790555060408201518160020155606082015181600301556080820151816004015560a0820151816005015560c08201518160060160006101000a81548160ff02191690836002811115610eaa577f4e487b7100000000000000000000000000000000000000000000000000000000600052602160045260246000fd5b021790555060e08201518160060160016101000a81548160ff021916908315150217905550505060016000815480929190610ee490611a05565b919050555060026040518061010001604052803373ffffffffffffffffffffffffffffffffffffffff1681526020018773ffffffffffffffffffffffffffffffffffffffff1681526020018681526020016000815260200185815260200184815260200160006002811115610f82577f4e487b7100000000000000000000000000000000000000000000000000000000600052602160045260246000fd5b815260200160001515815250908060018154018082558091505060019003906000526020600020906007020160009091909190915060008201518160000160006101000a81548173ffffffffffffffffffffffffffffffffffffffff021916908373ffffffffffffffffffffffffffffffffffffffff16021790555060208201518160010160006101000a81548173ffffffffffffffffffffffffffffffffffffffff021916908373ffffffffffffffffffffffffffffffffffffffff16021790555060408201518160020155606082015181600301556080820151816004015560a0820151816005015560c08201518160060160006101000a81548160ff021916908360028111156110be577f4e487b7100000000000000000000000000000000000000000000000000000000600052602160045260246000fd5b021790555060e08201518160060160016101000a81548160ff02191690831515021790555050508473ffffffffffffffffffffffffffffffffffffffff163373ffffffffffffffffffffffffffffffffffffffff167f4211018ebfb7a0f92e21da27b6633e654db52cb2ad7c6b5201ef78e20127096f86868660405161114693929190611917565b60405180910390a35050505050565b60606002805480602002602001604051908101604052809291908181526020016000905b828210156113225783829060005260206000209060070201604051806101000160405290816000820160009054906101000a900473ffffffffffffffffffffffffffffffffffffffff1673ffffffffffffffffffffffffffffffffffffffff1673ffffffffffffffffffffffffffffffffffffffff1681526020016001820160009054906101000a900473ffffffffffffffffffffffffffffffffffffffff1673ffffffffffffffffffffffffffffffffffffffff1673ffffffffffffffffffffffffffffffffffffffff168152602001600282015481526020016003820154815260200160048201548152602001600582015481526020016006820160009054906101000a900460ff1660028111156112bc577f4e487b7100000000000000000000000000000000000000000000000000000000600052602160045260246000fd5b60028111156112f4577f4e487b7100000000000000000000000000000000000000000000000000000000600052602160045260246000fd5b81526020016006820160019054906101000a900460ff16151515158152505081526020019060010190611179565b50505050905090565b60008060008373ffffffffffffffffffffffffffffffffffffffff1673ffffffffffffffffffffffffffffffffffffffff168152602001908152602001600020805490509050919050565b6000602052816000526040600020818154811061139257600080fd5b9060005260206000209060070201600091509150508060000160009054906101000a900473ffffffffffffffffffffffffffffffffffffffff16908060010160009054906101000a900473ffffffffffffffffffffffffffffffffffffffff16908060020154908060030154908060040154908060050154908060060160009054906101000a900460ff16908060060160019054906101000a900460ff16905088565b60015481565b60008135905061144a81611bb3565b92915050565b60008135905061145f81611bca565b92915050565b60006020828403121561147757600080fd5b60006114858482850161143b565b91505092915050565b6000806000606084860312156114a357600080fd5b60006114b18682870161143b565b93505060206114c28682870161143b565b92505060406114d386828701611450565b9150509250925092565b600080604083850312156114f057600080fd5b60006114fe8582860161143b565b925050602061150f85828601611450565b9150509250929050565b6000806000806080858703121561152f57600080fd5b600061153d8782880161143b565b945050602061154e87828801611450565b935050604061155f87828801611450565b925050606061157087828801611450565b91505092959194509250565b600061158883836116fc565b6101008301905092915050565b61159e81611998565b82525050565b6115ad81611998565b82525050565b60006115be8261195e565b6115c88185611976565b93506115d38361194e565b8060005b838110156116045781516115eb888261157c565b97506115f683611969565b9250506001810190506115d7565b5085935050505092915050565b61161a816119aa565b82525050565b611629816119aa565b82525050565b611638816119f3565b82525050565b611647816119f3565b82525050565b600061165a602f83611987565b915061166582611aac565b604082019050919050565b600061167d600e83611987565b915061168882611afb565b602082019050919050565b60006116a0601d83611987565b91506116ab82611b24565b602082019050919050565b60006116c3601683611987565b91506116ce82611b4d565b602082019050919050565b60006116e6601883611987565b91506116f182611b76565b602082019050919050565b610100820160008201516117136000850182611595565b5060208201516117266020850182611595565b506040820151611739604085018261179e565b50606082015161174c606085018261179e565b50608082015161175f608085018261179e565b5060a082015161177260a085018261179e565b5060c082015161178560c085018261162f565b5060e082015161179860e0850182611611565b50505050565b6117a7816119e9565b82525050565b6117b6816119e9565b82525050565b6000610100820190506117d2600083018b6115a4565b6117df602083018a6115a4565b6117ec60408301896117ad565b6117f960608301886117ad565b61180660808301876117ad565b61181360a08301866117ad565b61182060c083018561163e565b61182d60e0830184611620565b9998505050505050505050565b6000602082019050818103600083015261185481846115b3565b905092915050565b600060208201905081810360008301526118758161164d565b9050919050565b6000602082019050818103600083015261189581611670565b9050919050565b600060208201905081810360008301526118b581611693565b9050919050565b600060208201905081810360008301526118d5816116b6565b9050919050565b600060208201905081810360008301526118f5816116d9565b9050919050565b600060208201905061191160008301846117ad565b92915050565b600060608201905061192c60008301866117ad565b61193960208301856117ad565b61194660408301846117ad565b949350505050565b6000819050602082019050919050565b600081519050919050565b6000602082019050919050565b600082825260208201905092915050565b600082825260208201905092915050565b60006119a3826119c9565b9050919050565b60008115159050919050565b60008190506119c482611b9f565b919050565b600073ffffffffffffffffffffffffffffffffffffffff82169050919050565b6000819050919050565b60006119fe826119b6565b9050919050565b6000611a10826119e9565b91507fffffffffffffffffffffffffffffffffffffffffffffffffffffffffffffffff821415611a4357611a42611a4e565b5b600182019050919050565b7f4e487b7100000000000000000000000000000000000000000000000000000000600052601160045260246000fd5b7f4e487b7100000000000000000000000000000000000000000000000000000000600052602160045260246000fd5b7f4f2076616c6f7220646f20706167616d656e746f206465766520636f7272657360008201527f706f6e64657220616f20637573746f0000000000000000000000000000000000602082015250565b7f4ac3a12065737461207061676f21000000000000000000000000000000000000600082015250565b7f41696e6461206ec3a36f20657374c3a120656d207472616e7369746f2e000000600082015250565b7f4ac3a120657374c3a120656d207472c3a26e7369746f00000000000000000000600082015250565b7f44657374696e6174c3a172696f20696e76c3a16c69646f2e0000000000000000600082015250565b60038110611bb057611baf611a7d565b5b50565b611bbc81611998565b8114611bc757600080fd5b50565b611bd3816119e9565b8114611bde57600080fd5b5056fea2646970667358221220eda9c7564805ea7b37cea6924f4182c0abb6858d90887d5be2669235cc826e3a64736f6c63430008040033",
  "linkReferences": {},
  "deployedLinkReferences": {}
}